{
  "contractName": "Array",
  "abi": [
    {
      "inputs": [
        {
          "internalType": "uint256",
          "name": "",
          "type": "uint256"
        }
      ],
      "name": "array",
      "outputs": [
        {
          "internalType": "uint256",
          "name": "",
          "type": "uint256"
        }
      ],
      "stateMutability": "view",
      "type": "function"
    },
    {
      "inputs": [
        {
          "internalType": "uint256",
          "name": "",
          "type": "uint256"
        }
      ],
      "name": "dynArray",
      "outputs": [
        {
          "internalType": "uint256",
          "name": "",
          "type": "uint256"
        }
      ],
      "stateMutability": "view",
      "type": "function"
    },
    {
      "inputs": [
        {
          "internalType": "uint256",
          "name": "a",
          "type": "uint256"
        },
        {
          "internalType": "uint256",
          "name": "b",
          "type": "uint256"
        },
        {
          "internalType": "uint256",
          "name": "c",
          "type": "uint256"
        }
      ],
      "name": "setArrayValues",
      "outputs": [],
      "stateMutability": "nonpayable",
      "type": "function"
    },
    {
      "inputs": [],
      "name": "getArrayLength",
      "outputs": [
        {
          "internalType": "uint256",
          "name": "",
          "type": "uint256"
        }
      ],
      "stateMutability": "view",
      "type": "function"
    },
    {
      "inputs": [
        {
          "internalType": "uint256",
          "name": "item",
          "type": "uint256"
        }
      ],
      "name": "addElement",
      "outputs": [],
      "stateMutability": "nonpayable",
      "type": "function"
    },
    {
      "inputs": [],
      "name": "newArray",
      "outputs": [],
      "stateMutability": "nonpayable",
      "type": "function"
    }
  ],
  "bytecode": "0x60806040526040518060600160405280600160ff168152602001600260ff168152602001600360ff16815250600090600361003b92919061004e565b5034801561004857600080fd5b506100b0565b8260038101928215610082579160200282015b82811115610081578251829060ff16905591602001919060010190610061565b5b50905061008f9190610093565b5090565b5b808211156100ac576000816000905550600101610094565b5090565b610540806100bf6000396000f3fe608060405234801561001057600080fd5b50600436106100625760003560e01c80630849cc991461006757806338d94193146100855780635c56eef7146100b5578063d81f26f4146100e5578063dbf8a34d14610101578063f5d9612d1461010b575b600080fd5b61006f610127565b60405161007c91906104ce565b60405180910390f35b61009f600480360381019061009a9190610447565b610130565b6040516100ac91906104ce565b60405180910390f35b6100cf60048036038101906100ca9190610447565b61014b565b6040516100dc91906104ce565b60405180910390f35b6100ff60048036038101906100fa9190610470565b61016f565b005b610109610236565b005b61012560048036038101906101209190610447565b61039c565b005b60006003905090565b6000816003811061014057600080fd5b016000915090505481565b6003818154811061015b57600080fd5b906000526020600020016000915090505481565b82600080600381106101aa577f4e487b7100000000000000000000000000000000000000000000000000000000600052603260045260246000fd5b01819055508160006001600381106101eb577f4e487b7100000000000000000000000000000000000000000000000000000000600052603260045260246000fd5b018190555080600060026003811061022c577f4e487b7100000000000000000000000000000000000000000000000000000000600052603260045260246000fd5b0181905550505050565b6000600367ffffffffffffffff811115610279577f4e487b7100000000000000000000000000000000000000000000000000000000600052604160045260246000fd5b6040519080825280602002602001820160405280156102a75781602001602082028036833780820191505090505b5090506008816000815181106102e6577f4e487b7100000000000000000000000000000000000000000000000000000000600052603260045260246000fd5b60200260200101818152505060038160018151811061032e577f4e487b7100000000000000000000000000000000000000000000000000000000600052603260045260246000fd5b602002602001018181525050600381600281518110610376577f4e487b7100000000000000000000000000000000000000000000000000000000600052603260045260246000fd5b60200260200101818152505080600390805190602001906103989291906103c8565b5050565b600381908060018154018082558091505060019003906000526020600020016000909190919091505550565b828054828255906000526020600020908101928215610404579160200282015b828111156104035782518255916020019190600101906103e8565b5b5090506104119190610415565b5090565b5b8082111561042e576000816000905550600101610416565b5090565b600081359050610441816104f3565b92915050565b60006020828403121561045957600080fd5b600061046784828501610432565b91505092915050565b60008060006060848603121561048557600080fd5b600061049386828701610432565b93505060206104a486828701610432565b92505060406104b586828701610432565b9150509250925092565b6104c8816104e9565b82525050565b60006020820190506104e360008301846104bf565b92915050565b6000819050919050565b6104fc816104e9565b811461050757600080fd5b5056fea2646970667358221220fc9e6abbbbf17e21cadfe95444ce6a12fffdb59f085a184890d5bcfc23213d7964736f6c63430008010033",
  "immutableReferences": {},
  "source": "// SPDX-License-Identifier: UNLICENSED\npragma solidity >=0.7.0 <0.9.0;\n\ncontract Array {\n  uint[3] public array = [1, 2, 3];\n  uint[] public dynArray;\n\n  function  setArrayValues(uint a, uint b, uint c) public{\n    array[0] = a;\n    array[1] = b;\n    array[2] = c;\n  }\n\n  function getArrayLength() public view returns(uint) {\n    return array.length;\n  }\n\n  function addElement(uint item) public {\n    dynArray.push(item);\n  }\n\n  function newArray() public {\n    uint[] memory arr = new uint[](3);\n    arr[0] = 8;\n    arr[1] = 3;\n    arr[2] = 3;\n    dynArray = arr;\n  }\n}\n// Note that increasing the length of a storage array by calling push() has constant gas costs because storage is\n\n// zero-initialized, while decreasing the length by calling pop() has a cost that depends on the “size” of the\n\n// element being removed.\n\n// since 0.6 array.length is read only",
  "sourcePath": "/home/ut/programmes/Programmation/ethereum/learning/hero/contracts/Array.sol",
  "compiler": {
    "name": "solc",
    "version": "0.8.1+commit.df193b15.Emscripten.clang"
  },
  "schemaVersion": "3.4.3",
  "updatedAt": "2021-10-21T20:53:36.448Z",
  "devdoc": {
    "kind": "dev",
    "methods": {},
    "version": 1
  },
  "userdoc": {
    "kind": "user",
    "methods": {},
    "version": 1
  }
}