{
  "contractName": "Array",
  "abi": [
    {
      "inputs": [
        {
          "internalType": "uint256",
          "name": "",
          "type": "uint256"
        }
      ],
      "name": "array",
      "outputs": [
        {
          "internalType": "uint256",
          "name": "",
          "type": "uint256"
        }
      ],
      "stateMutability": "view",
      "type": "function",
      "constant": true
    },
    {
      "inputs": [
        {
          "internalType": "uint256",
          "name": "",
          "type": "uint256"
        }
      ],
      "name": "dynArray",
      "outputs": [
        {
          "internalType": "uint256",
          "name": "",
          "type": "uint256"
        }
      ],
      "stateMutability": "view",
      "type": "function",
      "constant": true
    },
    {
      "inputs": [
        {
          "internalType": "uint256",
          "name": "a",
          "type": "uint256"
        },
        {
          "internalType": "uint256",
          "name": "b",
          "type": "uint256"
        },
        {
          "internalType": "uint256",
          "name": "c",
          "type": "uint256"
        }
      ],
      "name": "setArrayValues",
      "outputs": [],
      "stateMutability": "nonpayable",
      "type": "function"
    },
    {
      "inputs": [],
      "name": "getArrayLength",
      "outputs": [
        {
          "internalType": "uint256",
          "name": "",
          "type": "uint256"
        }
      ],
      "stateMutability": "view",
      "type": "function",
      "constant": true
    },
    {
      "inputs": [
        {
          "internalType": "uint256",
          "name": "item",
          "type": "uint256"
        }
      ],
      "name": "addElement",
      "outputs": [],
      "stateMutability": "nonpayable",
      "type": "function"
    }
  ],
  "bytecode": "0x60806040526040518060600160405280600160ff168152602001600260ff168152602001600360ff16815250600090600361003b92919061004e565b5034801561004857600080fd5b506100b0565b8260038101928215610082579160200282015b82811115610081578251829060ff16905591602001919060010190610061565b5b50905061008f9190610093565b5090565b5b808211156100ac576000816000905550600101610094565b5090565b61035b806100bf6000396000f3fe608060405234801561001057600080fd5b50600436106100575760003560e01c80630849cc991461005c57806338d941931461007a5780635c56eef7146100aa578063d81f26f4146100da578063f5d9612d146100f6575b600080fd5b610064610112565b60405161007191906102e9565b60405180910390f35b610094600480360381019061008f9190610262565b61011b565b6040516100a191906102e9565b60405180910390f35b6100c460048036038101906100bf9190610262565b610136565b6040516100d191906102e9565b60405180910390f35b6100f460048036038101906100ef919061028b565b61015a565b005b610110600480360381019061010b9190610262565b610221565b005b60006003905090565b6000816003811061012b57600080fd5b016000915090505481565b6003818154811061014657600080fd5b906000526020600020016000915090505481565b8260008060038110610195577f4e487b7100000000000000000000000000000000000000000000000000000000600052603260045260246000fd5b01819055508160006001600381106101d6577f4e487b7100000000000000000000000000000000000000000000000000000000600052603260045260246000fd5b0181905550806000600260038110610217577f4e487b7100000000000000000000000000000000000000000000000000000000600052603260045260246000fd5b0181905550505050565b600381908060018154018082558091505060019003906000526020600020016000909190919091505550565b60008135905061025c8161030e565b92915050565b60006020828403121561027457600080fd5b60006102828482850161024d565b91505092915050565b6000806000606084860312156102a057600080fd5b60006102ae8682870161024d565b93505060206102bf8682870161024d565b92505060406102d08682870161024d565b9150509250925092565b6102e381610304565b82525050565b60006020820190506102fe60008301846102da565b92915050565b6000819050919050565b61031781610304565b811461032257600080fd5b5056fea2646970667358221220e543a31ba1ec4b3c7a673c801f0aa0dd59e276e0bd77efc79e1d8f924a06e6d164736f6c63430008010033",
  "immutableReferences": {},
  "source": "// SPDX-License-Identifier: UNLICENSED\npragma solidity >=0.7.0 <0.9.0;\n\ncontract Array {\n  uint[3] public array = [1, 2, 3];\n  uint[] public dynArray;\n\n  function  setArrayValues(uint a, uint b, uint c) public{\n    array[0] = a;\n    array[1] = b;\n    array[2] = c;\n  }\n\n  function getArrayLength() public view returns(uint) {\n    return array.length;\n  }\n\n  function addElement(uint item) public {\n    dynArray.push(item);\n  }\n}\n// Note that increasing the length of a storage array by calling push() has constant gas costs because storage is\n\n// zero-initialized, while decreasing the length by calling pop() has a cost that depends on the “size” of the\n\n// element being removed.",
  "sourcePath": "/home/ut/programmes/Programmation/ethereum/learning/hero/contracts/Array.sol",
  "compiler": {
    "name": "solc",
    "version": "0.8.1+commit.df193b15.Emscripten.clang"
  },
  "schemaVersion": "3.4.3",
  "updatedAt": "2021-10-20T23:34:48.148Z",
  "networkType": "ethereum",
  "devdoc": {
    "kind": "dev",
    "methods": {},
    "version": 1
  },
  "userdoc": {
    "kind": "user",
    "methods": {},
    "version": 1
  }
}