{
  "contractName": "Struct",
  "abi": [
    {
      "inputs": [
        {
          "internalType": "string",
          "name": "_name",
          "type": "string"
        },
        {
          "internalType": "uint8",
          "name": "_age",
          "type": "uint8"
        },
        {
          "internalType": "string",
          "name": "_class",
          "type": "string"
        }
      ],
      "stateMutability": "nonpayable",
      "type": "constructor"
    },
    {
      "inputs": [],
      "name": "michou",
      "outputs": [
        {
          "internalType": "string",
          "name": "name",
          "type": "string"
        },
        {
          "internalType": "uint8",
          "name": "age",
          "type": "uint8"
        },
        {
          "internalType": "string",
          "name": "class",
          "type": "string"
        },
        {
          "internalType": "address",
          "name": "addr",
          "type": "address"
        }
      ],
      "stateMutability": "view",
      "type": "function",
      "constant": true
    },
    {
      "inputs": [
        {
          "internalType": "string",
          "name": "_name",
          "type": "string"
        },
        {
          "internalType": "uint8",
          "name": "_age",
          "type": "uint8"
        },
        {
          "internalType": "string",
          "name": "_class",
          "type": "string"
        },
        {
          "internalType": "address",
          "name": "_addr",
          "type": "address"
        }
      ],
      "name": "changeHero",
      "outputs": [],
      "stateMutability": "nonpayable",
      "type": "function"
    }
  ],
  "bytecode": "0x60806040523480156200001157600080fd5b5060405162000b5138038062000b518339818101604052810190620000379190620001ce565b826000800190805190602001906200005192919062000095565b5081600060010160006101000a81548160ff021916908360ff16021790555080600060020190805190602001906200008b92919062000095565b50505050620003ed565b828054620000a390620002f8565b90600052602060002090601f016020900481019282620000c7576000855562000113565b82601f10620000e257805160ff191683800117855562000113565b8280016001018555821562000113579182015b8281111562000112578251825591602001919060010190620000f5565b5b50905062000122919062000126565b5090565b5b808211156200014157600081600090555060010162000127565b5090565b60006200015c62000156846200027f565b62000256565b9050828152602081018484840111156200017557600080fd5b62000182848285620002c2565b509392505050565b600082601f8301126200019c57600080fd5b8151620001ae84826020860162000145565b91505092915050565b600081519050620001c881620003d3565b92915050565b600080600060608486031215620001e457600080fd5b600084015167ffffffffffffffff811115620001ff57600080fd5b6200020d868287016200018a565b93505060206200022086828701620001b7565b925050604084015167ffffffffffffffff8111156200023e57600080fd5b6200024c868287016200018a565b9150509250925092565b60006200026262000275565b90506200027082826200032e565b919050565b6000604051905090565b600067ffffffffffffffff8211156200029d576200029c62000393565b5b620002a882620003c2565b9050602081019050919050565b600060ff82169050919050565b60005b83811015620002e2578082015181840152602081019050620002c5565b83811115620002f2576000848401525b50505050565b600060028204905060018216806200031157607f821691505b6020821081141562000328576200032762000364565b5b50919050565b6200033982620003c2565b810181811067ffffffffffffffff821117156200035b576200035a62000393565b5b80604052505050565b7f4e487b7100000000000000000000000000000000000000000000000000000000600052602260045260246000fd5b7f4e487b7100000000000000000000000000000000000000000000000000000000600052604160045260246000fd5b6000601f19601f8301169050919050565b620003de81620002b5565b8114620003ea57600080fd5b50565b61075480620003fd6000396000f3fe608060405234801561001057600080fd5b50600436106100365760003560e01c806369a1e76b1461003b5780639c6a31d014610057575b600080fd5b610055600480360381019061005091906103ee565b610078565b005b61005f61015e565b60405161006f94939291906104d8565b60405180910390f35b60405180608001604052808581526020018460ff1681526020018381526020018273ffffffffffffffffffffffffffffffffffffffff168152506000808201518160000190805190602001906100cf9291906102b9565b5060208201518160010160006101000a81548160ff021916908360ff160217905550604082015181600201908051906020019061010d9291906102b9565b5060608201518160030160006101000a81548173ffffffffffffffffffffffffffffffffffffffff021916908373ffffffffffffffffffffffffffffffffffffffff16021790555090505050505050565b600080600001805461016f9061061e565b80601f016020809104026020016040519081016040528092919081815260200182805461019b9061061e565b80156101e85780601f106101bd576101008083540402835291602001916101e8565b820191906000526020600020905b8154815290600101906020018083116101cb57829003601f168201915b5050505050908060010160009054906101000a900460ff16908060020180546102109061061e565b80601f016020809104026020016040519081016040528092919081815260200182805461023c9061061e565b80156102895780601f1061025e57610100808354040283529160200191610289565b820191906000526020600020905b81548152906001019060200180831161026c57829003601f168201915b5050505050908060030160009054906101000a900473ffffffffffffffffffffffffffffffffffffffff16905084565b8280546102c59061061e565b90600052602060002090601f0160209004810192826102e7576000855561032e565b82601f1061030057805160ff191683800117855561032e565b8280016001018555821561032e579182015b8281111561032d578251825591602001919060010190610312565b5b50905061033b919061033f565b5090565b5b80821115610358576000816000905550600101610340565b5090565b600061036f61036a84610550565b61052b565b90508281526020810184848401111561038757600080fd5b6103928482856105dc565b509392505050565b6000813590506103a9816106f0565b92915050565b600082601f8301126103c057600080fd5b81356103d084826020860161035c565b91505092915050565b6000813590506103e881610707565b92915050565b6000806000806080858703121561040457600080fd5b600085013567ffffffffffffffff81111561041e57600080fd5b61042a878288016103af565b945050602061043b878288016103d9565b935050604085013567ffffffffffffffff81111561045857600080fd5b610464878288016103af565b92505060606104758782880161039a565b91505092959194509250565b61048a8161059d565b82525050565b600061049b82610581565b6104a5818561058c565b93506104b58185602086016105eb565b6104be816106df565b840191505092915050565b6104d2816105cf565b82525050565b600060808201905081810360008301526104f28187610490565b905061050160208301866104c9565b81810360408301526105138185610490565b90506105226060830184610481565b95945050505050565b6000610535610546565b90506105418282610650565b919050565b6000604051905090565b600067ffffffffffffffff82111561056b5761056a6106b0565b5b610574826106df565b9050602081019050919050565b600081519050919050565b600082825260208201905092915050565b60006105a8826105af565b9050919050565b600073ffffffffffffffffffffffffffffffffffffffff82169050919050565b600060ff82169050919050565b82818337600083830152505050565b60005b838110156106095780820151818401526020810190506105ee565b83811115610618576000848401525b50505050565b6000600282049050600182168061063657607f821691505b6020821081141561064a57610649610681565b5b50919050565b610659826106df565b810181811067ffffffffffffffff82111715610678576106776106b0565b5b80604052505050565b7f4e487b7100000000000000000000000000000000000000000000000000000000600052602260045260246000fd5b7f4e487b7100000000000000000000000000000000000000000000000000000000600052604160045260246000fd5b6000601f19601f8301169050919050565b6106f98161059d565b811461070457600080fd5b50565b610710816105cf565b811461071b57600080fd5b5056fea2646970667358221220f31c138dde60c765848a3f17ec328d1d9a2809ddd9eec310d260acd8fd49875e64736f6c63430008010033",
  "immutableReferences": {},
  "source": "// SPDX-License-Identifier: UNLICENSED\npragma solidity >=0.7.0 <0.9.0;\n\nstruct Hero {\n  string name;\n  uint8 age;\n  string class;\n  address addr;\n}\n\ncontract Struct{\n  Hero public michou;\n\n  constructor(string memory _name, uint8 _age, string memory _class) {\n    // Hero memory newHero = Hero({\n    //   name: _name,\n    //   age: _age,\n    //   class: _class,\n    //   addr: msg.sender\n    // });\n    // michou = newHero;\n    michou.name = _name;\n    michou.age = _age;\n    michou.class = _class;\n  }\n\n  function changeHero(string memory _name, uint8 _age, string memory _class, address _addr) public{\n    michou = Hero({\n      name: _name,\n      age: _age,\n      class: _class,\n      addr: _addr\n    });\n  }\n}",
  "sourcePath": "/home/ut/programmes/Programmation/ethereum/learning/hero/contracts/Struct.sol",
  "compiler": {
    "name": "solc",
    "version": "0.8.1+commit.df193b15.Emscripten.clang"
  },
  "schemaVersion": "3.4.3",
  "updatedAt": "2021-10-21T20:58:39.812Z",
  "networkType": "ethereum",
  "devdoc": {
    "kind": "dev",
    "methods": {},
    "version": 1
  },
  "userdoc": {
    "kind": "user",
    "methods": {},
    "version": 1
  }
}